{
  "address": "0x87E1e8cA301B020782359F973F2209789Af206bf",
  "abi": [
    {
      "inputs": [
        {
          "internalType": "address",
          "name": "feeToken_",
          "type": "address"
        },
        {
          "internalType": "uint256",
          "name": "feeAmount_",
          "type": "uint256"
        }
      ],
      "stateMutability": "nonpayable",
      "type": "constructor"
    },
    {
      "inputs": [],
      "name": "InvalidCreationParams",
      "type": "error"
    },
    {
      "inputs": [],
      "name": "InvalidRelease",
      "type": "error"
    },
    {
      "inputs": [
        {
          "internalType": "address",
          "name": "owner",
          "type": "address"
        }
      ],
      "name": "OwnableInvalidOwner",
      "type": "error"
    },
    {
      "inputs": [
        {
          "internalType": "address",
          "name": "account",
          "type": "address"
        }
      ],
      "name": "OwnableUnauthorizedAccount",
      "type": "error"
    },
    {
      "inputs": [
        {
          "internalType": "address",
          "name": "token",
          "type": "address"
        }
      ],
      "name": "SafeERC20FailedOperation",
      "type": "error"
    },
    {
      "anonymous": false,
      "inputs": [
        {
          "indexed": false,
          "internalType": "uint256",
          "name": "oldFeeAmount",
          "type": "uint256"
        },
        {
          "indexed": false,
          "internalType": "uint256",
          "name": "newFeeAmount",
          "type": "uint256"
        }
      ],
      "name": "FeeAmountChanged",
      "type": "event"
    },
    {
      "anonymous": false,
      "inputs": [
        {
          "indexed": true,
          "internalType": "address",
          "name": "feePayer",
          "type": "address"
        },
        {
          "indexed": true,
          "internalType": "address",
          "name": "feeTokenCharged",
          "type": "address"
        },
        {
          "indexed": false,
          "internalType": "uint256",
          "name": "feeAmount",
          "type": "uint256"
        }
      ],
      "name": "FeeCharged",
      "type": "event"
    },
    {
      "anonymous": false,
      "inputs": [
        {
          "indexed": false,
          "internalType": "address",
          "name": "oldFeeToken",
          "type": "address"
        },
        {
          "indexed": false,
          "internalType": "address",
          "name": "newFeeToken",
          "type": "address"
        }
      ],
      "name": "FeeTokenChanged",
      "type": "event"
    },
    {
      "anonymous": false,
      "inputs": [
        {
          "indexed": true,
          "internalType": "address",
          "name": "previousOwner",
          "type": "address"
        },
        {
          "indexed": true,
          "internalType": "address",
          "name": "newOwner",
          "type": "address"
        }
      ],
      "name": "OwnershipTransferred",
      "type": "event"
    },
    {
      "anonymous": false,
      "inputs": [
        {
          "indexed": true,
          "internalType": "uint256",
          "name": "id",
          "type": "uint256"
        }
      ],
      "name": "VestingClaimed",
      "type": "event"
    },
    {
      "anonymous": false,
      "inputs": [
        {
          "indexed": true,
          "internalType": "uint256",
          "name": "id",
          "type": "uint256"
        },
        {
          "indexed": true,
          "internalType": "address",
          "name": "owner",
          "type": "address"
        },
        {
          "components": [
            {
              "internalType": "contract IERC20",
              "name": "token",
              "type": "address"
            },
            {
              "internalType": "address[]",
              "name": "beneficiaries",
              "type": "address[]"
            },
            {
              "internalType": "uint256",
              "name": "lastClaim",
              "type": "uint256"
            },
            {
              "internalType": "uint256",
              "name": "startTime",
              "type": "uint256"
            },
            {
              "internalType": "uint256",
              "name": "cycleAmount",
              "type": "uint256"
            },
            {
              "internalType": "uint128",
              "name": "cycleDuration",
              "type": "uint128"
            },
            {
              "internalType": "uint128",
              "name": "cycleNumber",
              "type": "uint128"
            }
          ],
          "indexed": false,
          "internalType": "struct VestingPeriod",
          "name": "vestingPeriod",
          "type": "tuple"
        }
      ],
      "name": "VestingCreated",
      "type": "event"
    },
    {
      "anonymous": false,
      "inputs": [
        {
          "indexed": true,
          "internalType": "uint256",
          "name": "id",
          "type": "uint256"
        }
      ],
      "name": "VestingEnded",
      "type": "event"
    },
    {
      "inputs": [
        {
          "components": [
            {
              "internalType": "contract IERC20",
              "name": "token",
              "type": "address"
            },
            {
              "internalType": "address[]",
              "name": "beneficiaries",
              "type": "address[]"
            },
            {
              "internalType": "uint256",
              "name": "lastClaim",
              "type": "uint256"
            },
            {
              "internalType": "uint256",
              "name": "startTime",
              "type": "uint256"
            },
            {
              "internalType": "uint256",
              "name": "cycleAmount",
              "type": "uint256"
            },
            {
              "internalType": "uint128",
              "name": "cycleDuration",
              "type": "uint128"
            },
            {
              "internalType": "uint128",
              "name": "cycleNumber",
              "type": "uint128"
            }
          ],
          "internalType": "struct VestingPeriod",
          "name": "period",
          "type": "tuple"
        }
      ],
      "name": "create",
      "outputs": [],
      "stateMutability": "nonpayable",
      "type": "function"
    },
    {
      "inputs": [],
      "name": "feeAmount",
      "outputs": [
        {
          "internalType": "uint256",
          "name": "",
          "type": "uint256"
        }
      ],
      "stateMutability": "view",
      "type": "function"
    },
    {
      "inputs": [],
      "name": "feeToken",
      "outputs": [
        {
          "internalType": "contract IERC20",
          "name": "",
          "type": "address"
        }
      ],
      "stateMutability": "view",
      "type": "function"
    },
    {
      "inputs": [],
      "name": "owner",
      "outputs": [
        {
          "internalType": "address",
          "name": "",
          "type": "address"
        }
      ],
      "stateMutability": "view",
      "type": "function"
    },
    {
      "inputs": [
        {
          "internalType": "uint256",
          "name": "id",
          "type": "uint256"
        },
        {
          "internalType": "uint256",
          "name": "timestamp",
          "type": "uint256"
        }
      ],
      "name": "releasable",
      "outputs": [
        {
          "internalType": "uint256",
          "name": "",
          "type": "uint256"
        }
      ],
      "stateMutability": "view",
      "type": "function"
    },
    {
      "inputs": [
        {
          "internalType": "uint256",
          "name": "id",
          "type": "uint256"
        }
      ],
      "name": "release",
      "outputs": [],
      "stateMutability": "nonpayable",
      "type": "function"
    },
    {
      "inputs": [],
      "name": "renounceOwnership",
      "outputs": [],
      "stateMutability": "nonpayable",
      "type": "function"
    },
    {
      "inputs": [
        {
          "internalType": "address",
          "name": "newOwner",
          "type": "address"
        }
      ],
      "name": "transferOwnership",
      "outputs": [],
      "stateMutability": "nonpayable",
      "type": "function"
    },
    {
      "inputs": [
        {
          "internalType": "uint256",
          "name": "id",
          "type": "uint256"
        }
      ],
      "name": "vestingPeriods",
      "outputs": [
        {
          "internalType": "contract IERC20",
          "name": "token",
          "type": "address"
        },
        {
          "internalType": "uint256",
          "name": "lastClaim",
          "type": "uint256"
        },
        {
          "internalType": "uint256",
          "name": "startTime",
          "type": "uint256"
        },
        {
          "internalType": "uint256",
          "name": "cycleAmount",
          "type": "uint256"
        },
        {
          "internalType": "uint128",
          "name": "cycleDuration",
          "type": "uint128"
        },
        {
          "internalType": "uint128",
          "name": "cycleNumber",
          "type": "uint128"
        }
      ],
      "stateMutability": "view",
      "type": "function"
    }
  ],
  "transactionHash": "0x0cf78d2ba4ed908f7be118432f07af00eb689e02642fd163bea32157a16a120f",
  "args": [
    "0xd7Afa270b1490A89774Db3b8ABB9F0AB3D9BE53E",
    "200000000000000000000"
  ],
  "numDeployments": 3,
  "solcInputHash": "cce82b3fa9c9dc12ca32192069dc556d",
  "bytecode": "0x60803460d957601f610f0d38819003918201601f19168301916001600160401b0383118484101760de57808492604094855283398101031260d95780516001600160a01b038116919082900360d95760200151331560c35760008054336001600160a01b0319821681178355604051949290916001600160a01b0316907f8be0079c531659141344cd1fd0a4f28419497f9722a3daafe3b4186f6b6457e09080a3600180546001600160a01b031916919091179055600255610e1890816100f58239f35b631e4fbdf760e01b600052600060045260246000fd5b600080fd5b634e487b7160e01b600052604160045260246000fdfe608080604052600436101561001357600080fd5b60003560e01c9081632272d907146109675750806337bdc99b1461067057806342d00501146105fe578063647846a5146105d557806369e15404146105b7578063715018a61461055e5780638da5cb5b14610535578063dbc035ca146101145763f2fde38b1461008257600080fd5b3461010f57602036600319011261010f576004356001600160a01b0381169081900361010f576100b0610ccc565b80156100f957600080546001600160a01b03198116831782556001600160a01b0316907f8be0079c531659141344cd1fd0a4f28419497f9722a3daafe3b4186f6b6457e09080a3005b631e4fbdf760e01b600052600060045260246000fd5b600080fd5b3461010f57602036600319011261010f5760043567ffffffffffffffff811161010f578060040181360360e060031982011261010f576101543683610af2565b60208101515115159081610521575b81610513575b816104fc575b816104e5575b816104d7575b50156104c65760005460025460015490916101a69183916001600160a01b0390811691339116610d37565b6001546040519182526001600160a01b03169033907f945458c62aa39df7a4d87d6c4dbaaab7de5d870c9a1fe40e2b7571d84f158a8d90602090a360405160208101904682524360408201524260608201524460808201526bffffffffffffffffffffffff193360601b1660a082015260a0815261022560c082610a9c565b519020906102666102363685610af2565b61025c60018060a01b038251169160806001600160801b0360c083015116910151610acb565b9030903390610d37565b600082815260036020526040902083356001600160a01b0381169081900361010f5781546001600160a01b03191617815560018101946024810135926022190183121561010f578281019560048701359667ffffffffffffffff881161010f57602401968060051b3603881361010f576000976801000000000000000082116104b257825482845580831061048c575b50918852602088209188905b82821061046757505050506044810135806002840155606482013580600385015560848301359182600486015560a48401936001600160801b0361034586610be3565b1695600560c48301976001600160801b03196103608a610be3565b60801b1617910155604051602081526101008101999097906001600160a01b039061038a90610a56565b166020890152016024600482013591019867ffffffffffffffff8211610463578160051b36038a1361046357819060e060408a015252610120870198908a5b8181106104375750505061041d6001600160801b039461042894889794879460607f76c868619214808c7d24612303228783ea40797d4cbe9bee69497462450d726d9b0152608089015260a0880152610ade565b1660c0850152610ade565b1660e08201528033940390a380f35b919990919060019060209081906001600160a01b036104558f610a56565b168152019b019291016103c9565b8a80fd5b8035916001600160a01b03831683036104635760206001920192818601550190610302565b838a528260208b2091820191015b8181106104a757506102f6565b8a815560010161049a565b634e487b7160e01b89526041600452602489fd5b6327a449e360e01b60005260046000fd5b60809150015115158461017b565b60c08101516001600160801b031615159150610175565b60a08101516001600160801b03161515915061016f565b606081015142109150610169565b80516001600160a01b031615159150610163565b3461010f57600036600319011261010f576000546040516001600160a01b039091168152602090f35b3461010f57600036600319011261010f57610577610ccc565b600080546001600160a01b0319811682556001600160a01b03167f8be0079c531659141344cd1fd0a4f28419497f9722a3daafe3b4186f6b6457e08280a3005b3461010f57600036600319011261010f576020600254604051908152f35b3461010f57600036600319011261010f576001546040516001600160a01b039091168152602090f35b3461010f57602036600319011261010f57600435600052600360205260c0604060002060018060a01b0381541690600281015490600381015460056004830154920154926040519485526020850152604084015260608301526001600160801b038116608083015260801c60a0820152f35b3461010f57602036600319011261010f57600435806000526003602052604060002060405161069e81610a6a565b60018060a01b03825416815260018201916040518084602082965493848152019060005260206000209260005b8181106109455750506106e092500384610a9c565b602082019283526002810154604083019081526005600383015492606085019384526004810154608086015201549260a08101946001600160801b038516865260c082019460801c855261073382610c73565b15610934578660005260036020524260026040600020015561075482610c73565b50610777815151936107716107694286610bf7565b915185610bf7565b90610abe565b9260028110156108b05750519384511561089a576020949094015190516107ed946001600160801b0393849391926107bb926001600160a01b039081169116610cf5565b867fd0e1dfa94d54f1181ad0ebd107a1153ca958e9092d4f8e8d6ed4fb8103c217af600080a251169151935116610acb565b81018091116108845742116107fe57005b806000526003602052604060002060008155600181018054906000815581610863575b5050600581600060028194015582600382015582600482015501557fa406223eed305e0e3a1c88b893bde0b54f265678c554293f6e842f74caa9395f600080a2005b6000526020600020908101905b818110156108215760008155600101610870565b634e487b7160e01b600052601160045260246000fd5b634e487b7160e01b600052603260045260246000fd5b9192826108bf91969596610cac565b9260005b8381106108e2575050505050906001600160801b03806107ed936107bb565b60018060a01b038251168351600081518410156109205750868392602061091a9360019660051b0101858060a01b0390511690610cf5565b016108c3565b634e487b7160e01b81526032600452602490fd5b631cbb070960e01b60005260046000fd5b84546001600160a01b03168352600194850194889450602090930192016106cb565b3461010f57604036600319011261010f57600435600052600360205260406000209061099281610a6a565b81546001600160a01b0316815260405160018301805480835260009182526020808320908401929091905b818110610a37576020610a2f8861077189896109db818b0382610a9c565b85820152600560028401549360408301948552600381015460608401526004810154608084015201546001600160801b03811660a083015260801c60c0820152610a2760243582610bf7565b925190610bf7565b604051908152f35b82546001600160a01b03168452602090930192600192830192016109bd565b35906001600160a01b038216820361010f57565b60e0810190811067ffffffffffffffff821117610a8657604052565b634e487b7160e01b600052604160045260246000fd5b90601f8019910116810190811067ffffffffffffffff821117610a8657604052565b9190820391821161088457565b8181029291811591840414171561088457565b35906001600160801b038216820361010f57565b91909160e08184031261010f5760405190610b0c82610a6a565b8193610b1782610a56565b8352602082013567ffffffffffffffff811161010f5782019080601f8301121561010f5781359167ffffffffffffffff8311610a86578260051b9060405193610b636020840186610a9c565b845260208085019282010192831161010f57602001905b828210610bcb5750505060c08092610bc6926020860152604081013560408601526060810135606086015260808101356080860152610bbb60a08201610ade565b60a086015201610ade565b910152565b60208091610bd884610a56565b815201910190610b7a565b356001600160801b038116810361010f5790565b90606082015190818110610c6b57610c2691610c1291610abe565b6001600160801b0360a08401511690610cac565b906001600160801b0360c082015116808310600014610c5d575060018201809211610884576080610c5a92915b0151610acb565b90565b610c5a925060809091610c53565b505050600090565b60608101514210610ca65780610c9b610c936040610ca094015183610bf7565b914290610bf7565b610abe565b50600190565b50600090565b8115610cb6570490565b634e487b7160e01b600052601260045260246000fd5b6000546001600160a01b03163303610ce057565b63118cdaa760e01b6000523360045260246000fd5b60405163a9059cbb60e01b60208201526001600160a01b039092166024830152604480830193909352918152610d3591610d30606483610a9c565b610d7b565b565b6040516323b872dd60e01b60208201526001600160a01b039283166024820152929091166044830152606480830193909352918152610d3591610d30608483610a9c565b906000602091828151910182855af115610dd6576000513d610dcd57506001600160a01b0381163b155b610dac5750565b635274afe760e01b60009081526001600160a01b0391909116600452602490fd5b60011415610da5565b6040513d6000823e3d90fdfea26469706673582212209d826d71679d70bce509e063c9569a6b352db5ebf176eb8fbb68d7ddf5f4756564736f6c634300081d0033",
  "devdoc": {
    "author": "Alejandro Virelles <thesnakewitcher@gmail.com>",
    "details": "Each vesting occupies 5+b slots in memory, where b is the number of beneficiaries",
    "errors": {
      "OwnableInvalidOwner(address)": [
        {
          "details": "The owner is not a valid owner account. (eg. `address(0)`)"
        }
      ],
      "OwnableUnauthorizedAccount(address)": [
        {
          "details": "The caller account is not authorized to perform an operation."
        }
      ],
      "SafeERC20FailedOperation(address)": [
        {
          "details": "An operation with an ERC-20 token failed."
        }
      ]
    },
    "kind": "dev",
    "methods": {
      "owner()": {
        "details": "Returns the address of the current owner."
      },
      "release(uint256)": {
        "details": "to use it as getter use it with `staticCall` or check https://github.com/gnosis/util-contracts/blob/main/contracts/storage/StorageAccessible.sol"
      },
      "renounceOwnership()": {
        "details": "Leaves the contract without owner. It will not be possible to call `onlyOwner` functions. Can only be called by the current owner. NOTE: Renouncing ownership will leave the contract without an owner, thereby disabling any functionality that is only available to the owner."
      },
      "transferOwnership(address)": {
        "details": "Transfers ownership of the contract to a new account (`newOwner`). Can only be called by the current owner."
      }
    },
    "title": "VestingManager",
    "version": 1
  },
  "userdoc": {
    "kind": "user",
    "methods": {},
    "notice": "A contract to manage vestings of ERC20 tokens ",
    "version": 1
  },
  "storageLayout": {
    "storage": [
      {
        "astId": 8,
        "contract": "contracts/VestingManager.sol:VestingManager",
        "label": "_owner",
        "offset": 0,
        "slot": "0",
        "type": "t_address"
      },
      {
        "astId": 941,
        "contract": "contracts/VestingManager.sol:VestingManager",
        "label": "_feeToken",
        "offset": 0,
        "slot": "1",
        "type": "t_contract(IERC20)315"
      },
      {
        "astId": 894,
        "contract": "contracts/VestingManager.sol:VestingManager",
        "label": "_feeAmount",
        "offset": 0,
        "slot": "2",
        "type": "t_uint256"
      },
      {
        "astId": 1081,
        "contract": "contracts/VestingManager.sol:VestingManager",
        "label": "vestingPeriods",
        "offset": 0,
        "slot": "3",
        "type": "t_mapping(t_uint256,t_struct(VestingPeriod)1331_storage)"
      }
    ],
    "types": {
      "t_address": {
        "encoding": "inplace",
        "label": "address",
        "numberOfBytes": "20"
      },
      "t_array(t_address)dyn_storage": {
        "base": "t_address",
        "encoding": "dynamic_array",
        "label": "address[]",
        "numberOfBytes": "32"
      },
      "t_contract(IERC20)315": {
        "encoding": "inplace",
        "label": "contract IERC20",
        "numberOfBytes": "20"
      },
      "t_mapping(t_uint256,t_struct(VestingPeriod)1331_storage)": {
        "encoding": "mapping",
        "key": "t_uint256",
        "label": "mapping(uint256 => struct VestingPeriod)",
        "numberOfBytes": "32",
        "value": "t_struct(VestingPeriod)1331_storage"
      },
      "t_struct(VestingPeriod)1331_storage": {
        "encoding": "inplace",
        "label": "struct VestingPeriod",
        "members": [
          {
            "astId": 1317,
            "contract": "contracts/VestingManager.sol:VestingManager",
            "label": "token",
            "offset": 0,
            "slot": "0",
            "type": "t_contract(IERC20)315"
          },
          {
            "astId": 1320,
            "contract": "contracts/VestingManager.sol:VestingManager",
            "label": "beneficiaries",
            "offset": 0,
            "slot": "1",
            "type": "t_array(t_address)dyn_storage"
          },
          {
            "astId": 1322,
            "contract": "contracts/VestingManager.sol:VestingManager",
            "label": "lastClaim",
            "offset": 0,
            "slot": "2",
            "type": "t_uint256"
          },
          {
            "astId": 1324,
            "contract": "contracts/VestingManager.sol:VestingManager",
            "label": "startTime",
            "offset": 0,
            "slot": "3",
            "type": "t_uint256"
          },
          {
            "astId": 1326,
            "contract": "contracts/VestingManager.sol:VestingManager",
            "label": "cycleAmount",
            "offset": 0,
            "slot": "4",
            "type": "t_uint256"
          },
          {
            "astId": 1328,
            "contract": "contracts/VestingManager.sol:VestingManager",
            "label": "cycleDuration",
            "offset": 0,
            "slot": "5",
            "type": "t_uint128"
          },
          {
            "astId": 1330,
            "contract": "contracts/VestingManager.sol:VestingManager",
            "label": "cycleNumber",
            "offset": 16,
            "slot": "5",
            "type": "t_uint128"
          }
        ],
        "numberOfBytes": "192"
      },
      "t_uint128": {
        "encoding": "inplace",
        "label": "uint128",
        "numberOfBytes": "16"
      },
      "t_uint256": {
        "encoding": "inplace",
        "label": "uint256",
        "numberOfBytes": "32"
      }
    }
  }
}