{
  "address": "0x7F56D36896594739de383Dd16094c29d16284f9a",
  "abi": [
    {
      "inputs": [
        {
          "internalType": "address",
          "name": "feeToken_",
          "type": "address"
        },
        {
          "internalType": "uint256",
          "name": "feeAmount_",
          "type": "uint256"
        }
      ],
      "stateMutability": "nonpayable",
      "type": "constructor"
    },
    {
      "inputs": [],
      "name": "InvalidCreationParams",
      "type": "error"
    },
    {
      "inputs": [],
      "name": "InvalidPeriod",
      "type": "error"
    },
    {
      "inputs": [],
      "name": "InvalidRelease",
      "type": "error"
    },
    {
      "inputs": [
        {
          "internalType": "address",
          "name": "owner",
          "type": "address"
        }
      ],
      "name": "OwnableInvalidOwner",
      "type": "error"
    },
    {
      "inputs": [
        {
          "internalType": "address",
          "name": "account",
          "type": "address"
        }
      ],
      "name": "OwnableUnauthorizedAccount",
      "type": "error"
    },
    {
      "inputs": [
        {
          "internalType": "address",
          "name": "token",
          "type": "address"
        }
      ],
      "name": "SafeERC20FailedOperation",
      "type": "error"
    },
    {
      "anonymous": false,
      "inputs": [
        {
          "indexed": false,
          "internalType": "uint256",
          "name": "oldFeeAmount",
          "type": "uint256"
        },
        {
          "indexed": false,
          "internalType": "uint256",
          "name": "newFeeAmount",
          "type": "uint256"
        }
      ],
      "name": "FeeAmountChanged",
      "type": "event"
    },
    {
      "anonymous": false,
      "inputs": [
        {
          "indexed": true,
          "internalType": "address",
          "name": "feePayer",
          "type": "address"
        },
        {
          "indexed": true,
          "internalType": "address",
          "name": "feeTokenCharged",
          "type": "address"
        },
        {
          "indexed": false,
          "internalType": "uint256",
          "name": "feeAmount",
          "type": "uint256"
        }
      ],
      "name": "FeeCharged",
      "type": "event"
    },
    {
      "anonymous": false,
      "inputs": [
        {
          "indexed": false,
          "internalType": "address",
          "name": "oldFeeToken",
          "type": "address"
        },
        {
          "indexed": false,
          "internalType": "address",
          "name": "newFeeToken",
          "type": "address"
        }
      ],
      "name": "FeeTokenChanged",
      "type": "event"
    },
    {
      "anonymous": false,
      "inputs": [
        {
          "indexed": true,
          "internalType": "address",
          "name": "previousOwner",
          "type": "address"
        },
        {
          "indexed": true,
          "internalType": "address",
          "name": "newOwner",
          "type": "address"
        }
      ],
      "name": "OwnershipTransferred",
      "type": "event"
    },
    {
      "anonymous": false,
      "inputs": [
        {
          "indexed": true,
          "internalType": "uint256",
          "name": "id",
          "type": "uint256"
        }
      ],
      "name": "VestingClaimed",
      "type": "event"
    },
    {
      "anonymous": false,
      "inputs": [
        {
          "indexed": true,
          "internalType": "uint256",
          "name": "id",
          "type": "uint256"
        },
        {
          "indexed": true,
          "internalType": "address",
          "name": "owner",
          "type": "address"
        },
        {
          "components": [
            {
              "internalType": "contract IERC20",
              "name": "token",
              "type": "address"
            },
            {
              "internalType": "address[]",
              "name": "beneficiaries",
              "type": "address[]"
            },
            {
              "internalType": "uint256",
              "name": "lastClaim",
              "type": "uint256"
            },
            {
              "internalType": "uint256",
              "name": "startTime",
              "type": "uint256"
            },
            {
              "internalType": "uint256",
              "name": "cycleAmount",
              "type": "uint256"
            },
            {
              "internalType": "uint128",
              "name": "cycleDuration",
              "type": "uint128"
            },
            {
              "internalType": "uint128",
              "name": "cycleNumber",
              "type": "uint128"
            }
          ],
          "indexed": false,
          "internalType": "struct VestingPeriod",
          "name": "vestingPeriod",
          "type": "tuple"
        }
      ],
      "name": "VestingCreated",
      "type": "event"
    },
    {
      "anonymous": false,
      "inputs": [
        {
          "indexed": true,
          "internalType": "uint256",
          "name": "id",
          "type": "uint256"
        }
      ],
      "name": "VestingEnded",
      "type": "event"
    },
    {
      "inputs": [
        {
          "components": [
            {
              "internalType": "contract IERC20",
              "name": "token",
              "type": "address"
            },
            {
              "internalType": "address[]",
              "name": "beneficiaries",
              "type": "address[]"
            },
            {
              "internalType": "uint256",
              "name": "lastClaim",
              "type": "uint256"
            },
            {
              "internalType": "uint256",
              "name": "startTime",
              "type": "uint256"
            },
            {
              "internalType": "uint256",
              "name": "cycleAmount",
              "type": "uint256"
            },
            {
              "internalType": "uint128",
              "name": "cycleDuration",
              "type": "uint128"
            },
            {
              "internalType": "uint128",
              "name": "cycleNumber",
              "type": "uint128"
            }
          ],
          "internalType": "struct VestingPeriod",
          "name": "period",
          "type": "tuple"
        }
      ],
      "name": "create",
      "outputs": [],
      "stateMutability": "nonpayable",
      "type": "function"
    },
    {
      "inputs": [],
      "name": "feeAmount",
      "outputs": [
        {
          "internalType": "uint256",
          "name": "",
          "type": "uint256"
        }
      ],
      "stateMutability": "view",
      "type": "function"
    },
    {
      "inputs": [],
      "name": "feeToken",
      "outputs": [
        {
          "internalType": "contract IERC20",
          "name": "",
          "type": "address"
        }
      ],
      "stateMutability": "view",
      "type": "function"
    },
    {
      "inputs": [],
      "name": "owner",
      "outputs": [
        {
          "internalType": "address",
          "name": "",
          "type": "address"
        }
      ],
      "stateMutability": "view",
      "type": "function"
    },
    {
      "inputs": [
        {
          "internalType": "uint256",
          "name": "id",
          "type": "uint256"
        },
        {
          "internalType": "uint256",
          "name": "timestamp",
          "type": "uint256"
        }
      ],
      "name": "releasable",
      "outputs": [
        {
          "internalType": "uint256",
          "name": "",
          "type": "uint256"
        }
      ],
      "stateMutability": "view",
      "type": "function"
    },
    {
      "inputs": [
        {
          "internalType": "uint256",
          "name": "id",
          "type": "uint256"
        }
      ],
      "name": "release",
      "outputs": [],
      "stateMutability": "nonpayable",
      "type": "function"
    },
    {
      "inputs": [],
      "name": "renounceOwnership",
      "outputs": [],
      "stateMutability": "nonpayable",
      "type": "function"
    },
    {
      "inputs": [
        {
          "internalType": "uint256",
          "name": "feeAmount_",
          "type": "uint256"
        }
      ],
      "name": "setFeeAmount",
      "outputs": [],
      "stateMutability": "nonpayable",
      "type": "function"
    },
    {
      "inputs": [
        {
          "internalType": "address",
          "name": "feeToken_",
          "type": "address"
        }
      ],
      "name": "setFeeToken",
      "outputs": [],
      "stateMutability": "nonpayable",
      "type": "function"
    },
    {
      "inputs": [
        {
          "internalType": "address",
          "name": "newOwner",
          "type": "address"
        }
      ],
      "name": "transferOwnership",
      "outputs": [],
      "stateMutability": "nonpayable",
      "type": "function"
    },
    {
      "inputs": [
        {
          "internalType": "uint256",
          "name": "id",
          "type": "uint256"
        }
      ],
      "name": "vestingPeriods",
      "outputs": [
        {
          "internalType": "contract IERC20",
          "name": "token",
          "type": "address"
        },
        {
          "internalType": "uint256",
          "name": "lastClaim",
          "type": "uint256"
        },
        {
          "internalType": "uint256",
          "name": "startTime",
          "type": "uint256"
        },
        {
          "internalType": "uint256",
          "name": "cycleAmount",
          "type": "uint256"
        },
        {
          "internalType": "uint128",
          "name": "cycleDuration",
          "type": "uint128"
        },
        {
          "internalType": "uint128",
          "name": "cycleNumber",
          "type": "uint128"
        }
      ],
      "stateMutability": "view",
      "type": "function"
    }
  ],
  "transactionHash": "0x97dff0b4907b787ab12c9bb7b84db8bae0fd52da9b45ee3e4a356de65a6aca67",
  "args": [
    "0xd7Afa270b1490A89774Db3b8ABB9F0AB3D9BE53E",
    "200000000000000000000"
  ],
  "numDeployments": 4,
  "solcInputHash": "af32a5c0fe0a9ff8dbfd71c076a3da66",
  "bytecode": "0x60803460d957601f61101838819003918201601f19168301916001600160401b0383118484101760de57808492604094855283398101031260d95780516001600160a01b038116919082900360d95760200151331560c35760008054336001600160a01b0319821681178355604051949290916001600160a01b0316907f8be0079c531659141344cd1fd0a4f28419497f9722a3daafe3b4186f6b6457e09080a3600180546001600160a01b031916919091179055600255610f2390816100f58239f35b631e4fbdf760e01b600052600060045260246000fd5b600080fd5b634e487b7160e01b600052604160045260246000fdfe6080604052600436101561001257600080fd5b60003560e01c806315cce22414610ad15780632272d907146109e057806337bdc99b146106d357806342d0050114610661578063647846a51461063857806369e154041461061a5780636b392680146105c6578063715018a61461056d5780638da5cb5b14610544578063dbc035ca146101235763f2fde38b1461009557600080fd5b3461011e57602036600319011261011e576100ae610b42565b6100b6610cf9565b6001600160a01b0316801561010857600080546001600160a01b03198116831782556001600160a01b0316907f8be0079c531659141344cd1fd0a4f28419497f9722a3daafe3b4186f6b6457e09080a3005b631e4fbdf760e01b600052600060045260246000fd5b600080fd5b3461011e57602036600319011261011e5760043567ffffffffffffffff811161011e578060040181360360e060031982011261011e576101633683610bf4565b60208101515115159081610530575b81610522575b8161050b575b816104f4575b816104e6575b50156104d55760005460025460015490916101b59183916001600160a01b0390811691339116610e42565b6001546040519182526001600160a01b03169033907f945458c62aa39df7a4d87d6c4dbaaab7de5d870c9a1fe40e2b7571d84f158a8d90602090a360405160208101904682524360408201524260608201524460808201526bffffffffffffffffffffffff193360601b1660a082015260a0815261023460c082610b9e565b519020906102756102453685610bf4565b61026b60018060a01b038251169160806001600160801b0360c083015116910151610bcd565b9030903390610e42565b600082815260036020526040902083356001600160a01b0381169081900361011e5781546001600160a01b03191617815560018101946024810135926022190183121561011e578281019560048701359667ffffffffffffffff881161011e57602401968060051b3603881361011e576000976801000000000000000082116104c157825482845580831061049b575b50918852602088209188905b82821061047657505050506044810135806002840155606482013580600385015560848301359182600486015560a48401936001600160801b0361035486610ce5565b1695600560c48301976001600160801b031961036f8a610ce5565b60801b1617910155604051602081526101008101999097906001600160a01b039061039990610b58565b166020890152016024600482013591019867ffffffffffffffff8211610472578160051b36038a1361047257819060e060408a015252610120870198908a5b8181106104465750505061042c6001600160801b039461043794889794879460607f76c868619214808c7d24612303228783ea40797d4cbe9bee69497462450d726d9b0152608089015260a0880152610be0565b1660c0850152610be0565b1660e08201528033940390a380f35b919990919060019060209081906001600160a01b036104648f610b58565b168152019b019291016103d8565b8a80fd5b8035916001600160a01b03831683036104725760206001920192818601550190610311565b838a528260208b2091820191015b8181106104b65750610305565b8a81556001016104a9565b634e487b7160e01b89526041600452602489fd5b6327a449e360e01b60005260046000fd5b60809150015115158461018a565b60c08101516001600160801b031615159150610184565b60a08101516001600160801b03161515915061017e565b606081015142109150610178565b80516001600160a01b031615159150610172565b3461011e57600036600319011261011e576000546040516001600160a01b039091168152602090f35b3461011e57600036600319011261011e57610586610cf9565b600080546001600160a01b0319811682556001600160a01b03167f8be0079c531659141344cd1fd0a4f28419497f9722a3daafe3b4186f6b6457e08280a3005b3461011e57602036600319011261011e577f628999ddb8cc6bb99cec0350ca6e43277be4a15b13e849d3e532cada20effa826040600435610605610cf9565b600254908060025582519182526020820152a1005b3461011e57600036600319011261011e576020600254604051908152f35b3461011e57600036600319011261011e576001546040516001600160a01b039091168152602090f35b3461011e57602036600319011261011e57600435600052600360205260c0604060002060018060a01b0381541690600281015490600381015460056004830154920154926040519485526020850152604084015260608301526001600160801b038116608083015260801c60a0820152f35b3461011e57602036600319011261011e57600435806000526003602052604060002060405161070181610b6c565b60018060a01b03825416815260018201916040518084602082965493848152019060005260206000209260005b8181106109be57505061074392500384610b9e565b602082019283526002810154604083019081526005600383015492606085019384526004810154608086015201549260a08101946001600160801b038516865260c082019460801c855260018060a01b03825116156109ad576107a582610d9e565b1561099c57866000526003602052426002604060002001556107df815151936107d96107d14286610d22565b915185610d22565b90610bc0565b9260028110156109185750519384511561090257602094909401519051610855946001600160801b039384939192610823926001600160a01b039081169116610e00565b867fd0e1dfa94d54f1181ad0ebd107a1153ca958e9092d4f8e8d6ed4fb8103c217af600080a251169151935116610bcd565b81018091116108ec57421161086657005b8060005260036020526040600020600081556001810180549060008155816108cb575b5050600581600060028194015582600382015582600482015501557fa406223eed305e0e3a1c88b893bde0b54f265678c554293f6e842f74caa9395f600080a2005b6000526020600020908101905b8181101561088957600081556001016108d8565b634e487b7160e01b600052601160045260246000fd5b634e487b7160e01b600052603260045260246000fd5b91928261092791969596610de0565b9260005b83811061094a575050505050906001600160801b038061085593610823565b60018060a01b03825116835160008151841015610988575086839260206109829360019660051b0101858060a01b0390511690610e00565b0161092b565b634e487b7160e01b81526032600452602490fd5b631cbb070960e01b60005260046000fd5b6302e8f35960e31b60005260046000fd5b84546001600160a01b031683526001948501948894506020909301920161072e565b3461011e57604036600319011261011e5760043560005260036020526040600020604051610a0d81610b6c565b81546001600160a01b0316815260405160018301805480835260009182526020808320908401929091905b818110610ab2576020610aaa886107d98989610a56818b0382610b9e565b85820152600560028401549360408301948552600381015460608401526004810154608084015201546001600160801b03811660a083015260801c60c0820152610aa260243582610d22565b925190610d22565b604051908152f35b82546001600160a01b0316845260209093019260019283019201610a38565b3461011e57602036600319011261011e577f1080b8de45190ac9d8745f3724225c9b50b849890e73595c4403edd52b9493706040610b0d610b42565b610b15610cf9565b600180546001600160a01b039283166001600160a01b0319821681179092558351921682526020820152a1005b600435906001600160a01b038216820361011e57565b35906001600160a01b038216820361011e57565b60e0810190811067ffffffffffffffff821117610b8857604052565b634e487b7160e01b600052604160045260246000fd5b90601f8019910116810190811067ffffffffffffffff821117610b8857604052565b919082039182116108ec57565b818102929181159184041417156108ec57565b35906001600160801b038216820361011e57565b91909160e08184031261011e5760405190610c0e82610b6c565b8193610c1982610b58565b8352602082013567ffffffffffffffff811161011e5782019080601f8301121561011e5781359167ffffffffffffffff8311610b88578260051b9060405193610c656020840186610b9e565b845260208085019282010192831161011e57602001905b828210610ccd5750505060c08092610cc8926020860152604081013560408601526060810135606086015260808101356080860152610cbd60a08201610be0565b60a086015201610be0565b910152565b60208091610cda84610b58565b815201910190610c7c565b356001600160801b038116810361011e5790565b6000546001600160a01b03163303610d0d57565b63118cdaa760e01b6000523360045260246000fd5b90606082015190818110610d9657610d5191610d3d91610bc0565b6001600160801b0360a08401511690610de0565b906001600160801b0360c082015116808310600014610d885750600182018092116108ec576080610d8592915b0151610bcd565b90565b610d85925060809091610d7e565b505050600090565b60608101514210610dda5780610dc6610dbe6040610dcb94015183610d22565b914290610d22565b610bc0565b15610dd557600190565b600090565b50600090565b8115610dea570490565b634e487b7160e01b600052601260045260246000fd5b60405163a9059cbb60e01b60208201526001600160a01b039092166024830152604480830193909352918152610e4091610e3b606483610b9e565b610e86565b565b6040516323b872dd60e01b60208201526001600160a01b039283166024820152929091166044830152606480830193909352918152610e4091610e3b608483610b9e565b906000602091828151910182855af115610ee1576000513d610ed857506001600160a01b0381163b155b610eb75750565b635274afe760e01b60009081526001600160a01b0391909116600452602490fd5b60011415610eb0565b6040513d6000823e3d90fdfea2646970667358221220d69c799091d31b4e0bf800d7cac9d3a578bb9895d8e435b7a23e430bc994b17864736f6c634300081d0033",
  "devdoc": {
    "author": "Alejandro Virelles <thesnakewitcher@gmail.com>",
    "details": "Each vesting occupies 5+b slots in memory, where b is the number of beneficiaries",
    "errors": {
      "OwnableInvalidOwner(address)": [
        {
          "details": "The owner is not a valid owner account. (eg. `address(0)`)"
        }
      ],
      "OwnableUnauthorizedAccount(address)": [
        {
          "details": "The caller account is not authorized to perform an operation."
        }
      ],
      "SafeERC20FailedOperation(address)": [
        {
          "details": "An operation with an ERC-20 token failed."
        }
      ]
    },
    "kind": "dev",
    "methods": {
      "owner()": {
        "details": "Returns the address of the current owner."
      },
      "release(uint256)": {
        "details": "to use it as getter use it with `staticCall` or check https://github.com/gnosis/util-contracts/blob/main/contracts/storage/StorageAccessible.sol"
      },
      "renounceOwnership()": {
        "details": "Leaves the contract without owner. It will not be possible to call `onlyOwner` functions. Can only be called by the current owner. NOTE: Renouncing ownership will leave the contract without an owner, thereby disabling any functionality that is only available to the owner."
      },
      "transferOwnership(address)": {
        "details": "Transfers ownership of the contract to a new account (`newOwner`). Can only be called by the current owner."
      }
    },
    "title": "VestingManager",
    "version": 1
  },
  "userdoc": {
    "kind": "user",
    "methods": {},
    "notice": "A contract to manage vestings of ERC20 tokens ",
    "version": 1
  },
  "storageLayout": {
    "storage": [
      {
        "astId": 8,
        "contract": "contracts/VestingManager.sol:VestingManager",
        "label": "_owner",
        "offset": 0,
        "slot": "0",
        "type": "t_address"
      },
      {
        "astId": 941,
        "contract": "contracts/VestingManager.sol:VestingManager",
        "label": "_feeToken",
        "offset": 0,
        "slot": "1",
        "type": "t_contract(IERC20)315"
      },
      {
        "astId": 894,
        "contract": "contracts/VestingManager.sol:VestingManager",
        "label": "_feeAmount",
        "offset": 0,
        "slot": "2",
        "type": "t_uint256"
      },
      {
        "astId": 1026,
        "contract": "contracts/VestingManager.sol:VestingManager",
        "label": "vestingPeriods",
        "offset": 0,
        "slot": "3",
        "type": "t_mapping(t_uint256,t_struct(VestingPeriod)1312_storage)"
      }
    ],
    "types": {
      "t_address": {
        "encoding": "inplace",
        "label": "address",
        "numberOfBytes": "20"
      },
      "t_array(t_address)dyn_storage": {
        "base": "t_address",
        "encoding": "dynamic_array",
        "label": "address[]",
        "numberOfBytes": "32"
      },
      "t_contract(IERC20)315": {
        "encoding": "inplace",
        "label": "contract IERC20",
        "numberOfBytes": "20"
      },
      "t_mapping(t_uint256,t_struct(VestingPeriod)1312_storage)": {
        "encoding": "mapping",
        "key": "t_uint256",
        "label": "mapping(uint256 => struct VestingPeriod)",
        "numberOfBytes": "32",
        "value": "t_struct(VestingPeriod)1312_storage"
      },
      "t_struct(VestingPeriod)1312_storage": {
        "encoding": "inplace",
        "label": "struct VestingPeriod",
        "members": [
          {
            "astId": 1298,
            "contract": "contracts/VestingManager.sol:VestingManager",
            "label": "token",
            "offset": 0,
            "slot": "0",
            "type": "t_contract(IERC20)315"
          },
          {
            "astId": 1301,
            "contract": "contracts/VestingManager.sol:VestingManager",
            "label": "beneficiaries",
            "offset": 0,
            "slot": "1",
            "type": "t_array(t_address)dyn_storage"
          },
          {
            "astId": 1303,
            "contract": "contracts/VestingManager.sol:VestingManager",
            "label": "lastClaim",
            "offset": 0,
            "slot": "2",
            "type": "t_uint256"
          },
          {
            "astId": 1305,
            "contract": "contracts/VestingManager.sol:VestingManager",
            "label": "startTime",
            "offset": 0,
            "slot": "3",
            "type": "t_uint256"
          },
          {
            "astId": 1307,
            "contract": "contracts/VestingManager.sol:VestingManager",
            "label": "cycleAmount",
            "offset": 0,
            "slot": "4",
            "type": "t_uint256"
          },
          {
            "astId": 1309,
            "contract": "contracts/VestingManager.sol:VestingManager",
            "label": "cycleDuration",
            "offset": 0,
            "slot": "5",
            "type": "t_uint128"
          },
          {
            "astId": 1311,
            "contract": "contracts/VestingManager.sol:VestingManager",
            "label": "cycleNumber",
            "offset": 16,
            "slot": "5",
            "type": "t_uint128"
          }
        ],
        "numberOfBytes": "192"
      },
      "t_uint128": {
        "encoding": "inplace",
        "label": "uint128",
        "numberOfBytes": "16"
      },
      "t_uint256": {
        "encoding": "inplace",
        "label": "uint256",
        "numberOfBytes": "32"
      }
    }
  }
}